:060000000A128A11D12F43
:1000080083120313AF002B08AD002C08AE002F0895
:1000180003190F28102816282B082C04031D15284F
:10002800162817284A282908A3002A08A4002F08F8
:100038000A168A11F9250A128A113A282E08FF0091
:100048002D0884000A168A1100200A128A11A000BD
:100058002F080A168A1157270A128A1101308312AB
:100068000313AD070318AE0A0030AE07831203135B
:100078002E08FF002D0884000A168A1100200A1293
:100088008A11003A031D49284A2822280800B4305A
:100098000A168A1133260A128A116A300A128A1538
:1000A800BB230A128A11113083120313A3006A308A
:1000B8000A168A1194250A128A110B308312031327
:1000C800DB002630DA005D30D900D90B6928DA0B5D
:1000D8006928DB0B692883120313A001A00A6A3080
:1000E8000A168A11BA260A128A116930F800B43041
:1000F8000A128A1561210A128A11831203136908E8
:10010800031987288828C52823306906031D8D28E8
:100118008E289B28A001A00A6A300A168A11BA26DE
:100128000A128A1183120313E401E301B428A90116
:10013800A90A0314640DAA006908AB006A300A16FC
:100148008A11A6270A128A11831203136408603ED3
:1001580084006908831380000130FF007F08E407EA
:10016800033083120313DB008A30DA005530D900DC
:10017800D90BBC28DA0BBC28DB0BBC288312031371
:10018800E90103306406031DCA28CB287928E40155
:10019800E8296208D03EFA00FF3003180030FB005F
:1001A800FC01FD0100300A128A1501230A128A1186
:1001B8007D0883120313AD007C08AC007B08AB00FC
:1001C8007A08AA006008D03EFA00FF300318003011
:1001D800FB00FC01FD0100300A128A1501230A12F6
:1001E8008A117D0883120313B1007C08B0007B08D4
:1001F800AF007A08AE000A128A1134220A128A1154
:10020800831203132D08DF002C08DE002B08DD0005
:100218002A08DC00FE296208D03EFA00FF300318E5
:100228000030FB00FC01FD0100300A128A15012391
:100238000A128A117D0883120313C1007C08C000CA
:100248007B08BF007A08BE006008D03EFA00FF3085
:1002580003180030FB00FC01FD0100300A128A156A
:1002680001230A128A117D0883120313C5007C0832
:10027800C4007B08C3007A08C2000A168A11202528
:100288000A128A11831203134108DF004008DE00B6
:100298003F08DD003E08DC00FE296208D03EFA0077
:1002A800FF3003180030FB00FC01FD0100300A128A
:1002B8008A1501230A128A117D0883120313AD00DF
:1002C8007C08AC007B08AB007A08AA006008D03E26
:1002D800FA00FF3003180030FB00FC01FD0100307C
:1002E8000A128A1501230A128A117D088312031340
:1002F800B1007C08B0007B08AF007A08AE000A1293
:100308008A118C240A128A11831203132D08DF0024
:100318002C08DE002B08DD002A08DC00FE29620814
:10032800D03EFA00FF3003180030FB00FC01FD014D
:1003380000300A128A1501230A128A117D088312D5
:100348000313AD007C08AC007B08AB007A08AA0058
:100358006008D03EFA00FF3003180030FB00FC01B3
:10036800FD0100300A128A1501230A128A117D083C
:1003780083120313B1007C08B0007B08AF007A0831
:10038800AE000A128A1531260A128A118312031343
:100398002D08DF002C08DE002B08DD002A08DC0011
:1003A800FE29A901A90AAA01AA0A1930AB008030BE
:1003B800AC006A300A128A1104200A128A118312C8
:1003C8000313E301E30AFE296108D900DA015A0898
:1003D800003A0319F029D52959082A3A031951294D
:1003E800013A0319CD28063A03190F29023A0319CD
:1003F8009329D5296308031D022A032A7928023084
:10040800A900AA01AA0A3D30AB006A300A168A116F
:10041800A6270A128A11831203135F08C9005E080F
:10042800C8005D08C7005C08C600BC30CA000A12D4
:100438008A1588240A128A11023083120313A9002C
:100448000330AA00BC30AB000030AC006A300A129E
:100458008A1104200A128A1179280A128A1100289E
:10046800831203132D088039BA002D08B200320711
:10047800BC00AC1F402A412A422A3C143C080319FC
:10048800462A472A572A3C0A031D4B2A4C2A542A33
:100498000030AD000030AC000030AB000030AA00E6
:1004A800AC17AD015F2A0030AD000030AC00003061
:1004B800AB000030AA0031088039BB003B083A067F
:1004C8000319672A682A692A3A173108B2003207DD
:1004D800BB00B01F702A712A722A3B143B0803190B
:1004E800762A772A872A3B0A031D7B2A7C2A842AB4
:1004F8000030B1000030B0000030AF000030AE0076
:10050800B017B1018F2A0030B1000030B0000030C0
:10051800AF000030AE003C083B020318942A952A2D
:10052800BB2A3A1F982A992A9D2A8030FF007F0803
:10053800BA063C08BD003B08BC003D08BB002A08C1
:10054800BD002E08AA003D08AE002B08BD002F08EC
:10055800AB003D08AF002C08BD003008AC003D08DA
:10056800B0002D08BD003108AD003D08B100BD0147
:100578003B08B200B3013308B5003C083202B400AE
:10058800031CB5033508803AFF0080307F02031D45
:10059800CF2A1A303402031CD22AD32A0A2B8312F8
:1005A80003132D082C042B042A04031DDC2ADE2A3D
:1005B8000130DF2A0030BD000030AD000030AC0053
:1005C8000030AB000030AA003B08BC00122B3D1CD9
:1005D800EE2AEF2AF62A3D08B2000310320C013841
:1005E800BD00F82A0310BD0C2A1CFB2AFC2AFD2A90
:1005F800BD170130B2002D0DAD0CAC0CAB0CAA0C24
:10060800B20BFF2A0130FF007F08BC0783120313D7
:100618003B083C02031C112B122BEB2A3A1B152B0F
:10062800162B5F2B3C08031D1A2B1B2B242B003089
:10063800AD000030AC000030AB000030AA008B2CBD
:100648002E08AA072F0803110318013E03192D2BA2
:10065800AB07300803110318013E0319342BAC070C
:10066800310803110318013E03193B2BAD072D1C5C
:100678003E2B3F2B132C3D1C422B432B4A2B3D0872
:10068800B2000310320C0138BD004C2B0310BD0C16
:100698002A1C4F2B502B512BBD170130B2002D0DAA
:1006A800AD0CAC0CAB0CAA0CB20B532B0130FF00F9
:1006B8007F08BC07132C2D08803AFF003108803AC8
:1006C8007F02031D712B30082C02031D712B2F088C
:1006D8002B02031D712B2E082A020318742B752B6D
:1006E800CD2BFF30B200FF30B300FF30B400FF3035
:1006F800B5002E08B6002F08B7003008B80031083A
:10070800B9002A08B6022B08031C2B0F8C2B8D2B43
:10071800B7022C08031C2C0F922B932BB8022D0820
:10072800031C2D0F982B992BB9023608B2073708EE
:100738000318370FA02BA12BB30738080318380F5D
:10074800A62BA72BB40739080318390AB5073508AB
:10075800AD003408AC003308AB003208AA00803082
:10076800FF007F08BA06BD09BD0A3D08031DBD2B61
:10077800BE2BDB2B0130AA07003003180130AB0772
:10078800003003180130AC07003003180130AD0702
:10079800DB2B2E08AA022F08031C2F0FAB023008F0
:1007A800031C300FAC023108031C310FAD022D08B9
:1007B8002C042B042A04031DE22BE32B0F2C3D08E9
:1007C800031DE72BE82B0F2C0030AD000030AC00E8
:1007D8000030AB000030AA008B2C0130B2000310AF
:1007E800AA0DAB0DAC0DAD0DB20BF32BBD1FFD2B40
:1007F800FE2BFF2B2A143D1C022C032C062C031461
:10080800BD0D082C0310BD0D3C0803190C2C0D2C34
:100818000F2C0130BC02AC1F122C132CF12BBB0186
:10082800BD1F172C182C262C3D087F3903191D2CA9
:100838001E2C212CBB01BB0A262C2A1C242C252C5F
:10084800262C1E2C3B0803192A2C2B2C5F2C01303C
:10085800AA07003003180130AB0700300318013035
:10086800AC07003003180130AD072D1C3C2C3D2C83
:100878005F2C2A08B2002B08B3002C08B4002D08FE
:10088800B5000130B600350DB50CB40CB30CB20C84
:10089800B60B472C3508AD003408AC003308AB0064
:1008A8003208AA003C0A03195A2C5B2C5F2C013031
:1008B800FF007F08BC073C0A0319632C642C692CD1
:1008C8003C08031D682C692C772C0030AD000030E3
:1008D800AC000030AB000030AA003C08031D752CAA
:1008E800762C772CBA013C1C7A2C7B2C7D2CAC17EF
:1008F800812C7F30FF007F08AC053C08B200031054
:10090800320CAD00BA1F892C8A2C8B2CAD1708002D
:10091800831203132D088039B7002D08B20032075F
:10092800BD00AC1F982C992C9A2C3D143D08031936
:100938009E2C9F2CAE2C3D0A031DA32CA42CAC2C62
:100948000030AD000030AC000030AB000030AA0031
:10095800AC17B62C0030AD000030AC000030AB0056
:100968000030AA0031088039FF007F08B706310837
:10097800B2003207B800B01FC22CC32CC42C3814E4
:1009880038080319C82CC92CD82C380A031DCD2CBB
:10099800CE2CD62C0030B1000030B0000030AF00B3
:1009A8000030AE00B017E02C0030B1000030B000CD
:1009B8000030AF000030AE0038080319E42CE52CF5
:1009C800EA2C3D08031DE92CEA2CF32C0030AD007D
:1009D8000030AC000030AB000030AA00D02F2A084D
:1009E800F00030080A168A1144250A128A11710883
:1009F80083120313C3007008C2004208B200B30197
:100A0800B401B5013508BC003408BB003308BA008E
:100A18003208B9004308B200B301B401B501350882
:100A2800C1003408C0003308BF003208BE002B08DC
:100A3800F0002F080A168A1144250A128A11710833
:100A480083120313C3007008C2004208B200B30146
:100A5800B401B5013208B907330803110318013E80
:100A68000319372DBA07340803110318013E031977
:100A78003E2DBB07350803110318013E0319452D08
:100A8800BC074308B200B301B401B5013208BE0780
:100A9800330803110318013E0319532DBF07340807
:100AA80003110318013E03195A2DC0073508031115
:100AB8000318013E0319612DC1072C08F0002E0808
:100AC8000A168A1144250A128A117108831203131F
:100AD800C3007008C2004208B200B301B401B501F6
:100AE8003208B907330803110318013E03197D2D95
:100AF800BA07340803110318013E0319842DBB07F4
:100B0800350803110318013E03198B2DBC07430850
:100B1800B200B301B401B5013208BE0733080311AE
:100B28000318013E0319992DBF0734080311031850
:100B3800013E0319A02DC007350803110318013E13
:100B48000319A72DC1070830B2000310B90DBA0D5B
:100B5800BB0DBC0DB20BA92D2B08F0002E080A16F0
:100B68008A1144250A128A11710883120313C300DB
:100B78007008C2004208B2004308B300B401B501CE
:100B88003208B907330803110318013E0319CD2DA4
:100B9800BA07340803110318013E0319D42DBB0703
:100BA800350803110318013E0319DB2DBC072A0879
:100BB800F0002F080A168A1144250A128A117108B2
:100BC80083120313C3007008C2004208B20043082E
:100BD800B300B401B5013208B9073308031103188B
:100BE800013E0319F82DBA07340803110318013E12
:100BF8000319FF2DBB07350803110318013E03191C
:100C0800062EBC070830B2000310B90DBA0DBB0D93
:100C1800BC0DB20B082E2A08F0002E080A168A11FD
:100C280044250A128A11710883120313C30070083D
:100C3800C2004208B2004308B300B401B50132084B
:100C4800B907330803110318013E03192C2EBA07FC
:100C5800340803110318013E0319332EBB07350866
:100C680003110318013E03193A2EBC072B08F000A4
:100C780030080A168A1144250A128A11710883124B
:100C88000313C3007008C2004208B2004308B3004F
:100C9800B401B5013208BE07330803110318013E39
:100CA8000319572EBF07340803110318013E03190F
:100CB8005E2EC007350803110318013E0319652E7F
:100CC800C1072C08F0002F080A168A1144250A12B9
:100CD8008A11710883120313C3007008C200420806
:100CE800B2004308B300B401B5013208BE073308A7
:100CF80003110318013E0319822EBF07340803119C
:100D08000318013E0319892EC0073508031103187B
:100D1800013E0319902EC1072C08F00030080A166E
:100D28008A1144250A128A11710883120313C30019
:100D38007008C2004208B2004308B300B401B5010C
:100D480008300310B20DB30DB40DB50DFF3E031DF1
:100D5800A52E3208BE07330803110318013E0319F4
:100D6800B62EBF07340803110318013E0319BD2E20
:100D7800C007350803110318013E0319C42EC10723
:100D88003908B2003A08B3003B08B4003C08B50083
:100D980018300310B50CB40CB30CB20CFF3E031D95
:100DA800CD2E3208BE07330803110318013E03197C
:100DB800DE2EBF07340803110318013E0319E52E80
:100DC800C007350803110318013E0319EC2EC107AB
:100DD8000830B2000310B90DBA0DBB0DBC0DB20B33
:100DE800EE2E3D083807B200B301B30D3208823E3B
:100DF800C20033080318013EFF3EC300202F013014
:100E0800B2000310BE0DBF0DC00DC10DB20B052FF2
:100E1800BC1F0F2F102F112F3E140130B2000310EA
:100E2800B90DBA0DBB0DBC0DB20B132FFF30C207A5
:100E38000318C30AFF30C307C01F232F242F032F13
:100E4800B801BC1F282F292F452FFF303905B200C4
:100E5800FF303A05B300FF303B05B4007F303C0556
:100E6800B500350834043304320403193C2F3D2FF0
:100E7800402FB801B80A452F3E1C432F442F452F59
:100E88003D2F38080319492F4A2F7B2F0130BE0701
:100E9800003003180130BF07003003180130C007C5
:100EA800003003180130C107411C5B2F5C2F7B2FDA
:100EB8003E08B2003F08B3004008B4004108B5003E
:100EC8000130B600350DB50CB40CB30CB20CB60B32
:100ED800662F3508C1003408C0003308BF00320847
:100EE800BE000130C2070318C30A0030C307430815
:100EF800803AFF0080307F02031D842FFF304202BA
:100F0800031C872F882F932F7F3083120313C10070
:100F18008030C0000030BF000030BE00C42F8312F4
:100F280003134308803AFF0080307F02031D9E2F81
:100F3800013042020318A12FA22FAE2F00308312D6
:100F48000313C1000030C0000030BF000030BE00F5
:100F5800B701C42F831203134208BD00FF30BE053A
:100F6800FF30BF057F30C0050030C1053D1CBD2FD7
:100F7800BE2FBF2FC0173D08B2000310320CC100AE
:100F88003708FF007F08C1044108AD004008AC00E5
:100F98003F08AB003E08AA0008008313BC30FD00E0
:100FA8001430FE00BE30FF00A03084000A168A11FB
:100FB800AF240A128A117030FD001430FE00A530EB
:100FC800FF006A3084000A168A11AF240A128A11B7
:100FD800BC308400C7300A128A1501200A128A110F
:100FE8005C3084006A300A128A1501200A128A11BC
:080FF80083010A128A114B2843
:1010020064008001840A04060319003404060228DD
:10101200F501F11F0D280E281528F009F109F00A33
:101022000319F10AF501F50AF31F182819282228D5
:10103200F209F309F20A0319F30A0130FF007F08EB
:10104200F506F601F70170087104031929282A2808
:101052006128F401F40A382801300310F00DF10D73
:10106200FF3E031D2E280130FF007F08F407F11F09
:101072003B283C282D2801300310F60DF70DFF3ECA
:10108200031D3D2871087302031D4928700872026E
:10109200031C4C284D2854287008F2027108031CC6
:1010A200F303F302761401300310F10CF00CFF3E4F
:1010B200031D55280130F402031D602861283C28D5
:1010C20075080319652866286B28F609F709F60AD8
:1010D2000319F70A7708F1007608F00008000310F8
:1010E200720D730DF9007908031D7828792882287A
:1010F2000030F3000030F2000030F1000030F00068
:10110200E5287008F4007108F5007208F60073080B
:10111200F7001F300310F70CF60CF50CF40CFF3E31
:10112200031D8B287408F800F217FF30F005FF301A
:10113200F105FF30F2050030F3059630F902F91F90
:10114200A328A428BE287908803A973E0318AA2823
:10115200AB28AC28792801300310F30CF20CF10C07
:10116200F00CFF3E031DAD280130FF007F08F90798
:10117200031DBC28BD28AC28D52820307902031CC9
:10118200C328C428D02879280130F4000310F00DB8
:10119200F10DF20DF30DF40BC7280130F9027908B5
:1011A200031DD428D528C52878080319D928DA2898
:1011B200E528F009F109F209F309F00A0319F10A25
:1011C2000319F20A0319F30A0800F7007708031952
:1011D200EB28EC28FB28770884008313000CF1002D
:1011E200F10C710C0739F20008307202031CFA2864
:1011F200FB28FD28F6015F29F601F60A4F29013086
:10120200F10077088400000CF200F20C720C07392E
:10121200013E0D290310F10DFF3E031D0B2971083C
:10122200FF3AFF007708840000080739F3007307CC
:10123200A03E84000008F400840A0008F500740847
:1012420084008317751C83137F0880055F29013092
:10125200F10077088400000CF200F20C720C0739DE
:10126200013E35290310F10DFF3E031D332971089C
:10127200FF007708840000080739F3007307A03ED7
:1012820084000008F400840A0008F5007408840051
:101292008317751C83137F0880045F297008F1008F
:1012A200F2017208003A03195729FB287108003A23
:1012B20003190029013A03192829FB287608080096
:1012C20083120313A500A301A401A2012508031997
:1012D2006B296C2971297808031D702971297229DB
:1012E200DD29A001A00AA301A201F001220825071D
:1012F2000A128A15E6200A128A15FF007F08831255
:101302000313A0050130FF007F08A2070430220268
:10131200031C8C298D297629F001F00A2308250760
:101322000A128A15E6200A128A15FF007F08831224
:101332000313A005A4012130F00024082507043E70
:101342000A168A1170260A128A15FF007F08831274
:101352000313A0052103031DAF29B029C9292308BE
:10136200F90002300310F90DFF3E031DB3290130CD
:101372007907FA0024087A0784000A168A110A20DB
:101382000A128A15FF00780884007F088313800000
:101392000130FF007F08A40704302402031CD22975
:1013A200D3299C290130FF007F08A30704302302C0
:1013B200031CDC29DD2975290800F60076080319CB
:1013C200E329E429F329760884008313000CF00052
:1013D200F00C700C0739F10008307102031CF2297D
:1013E200F329F529F5015D2AF501F50A472A0130AD
:1013F200F00076088400000CF100F10C710C073942
:10140200013E052A0310F00DFF3E031D032A70085A
:10141200FF3AFF007608840000080739F2007207DD
:10142200AA3E84000008F300840A0008F40073084E
:1014320084008317741C83137F0880055D2A0130A2
:10144200F00076088400000CF100F10C710C0739F1
:10145200013E2D2A0310F00DFF3E031D2B2A7008BA
:10146200FF007608840000080739F2007207AA3EDE
:1014720084000008F300840A0008F4007308840062
:101482008317741C83137F0880045D2A7608840006
:10149200000EF000F00C700C0139F100F20172083C
:1014A200003A0319552AF3297108003A0319F82959
:1014B200013A0319202AF329750808000030700543
:1014C200F80000307105F90080307205FA007F30B3
:1014D2007305FB007B087A0479047804031D722AE1
:1014E200732A7B2A0030F3000030F2000030F10052
:1014F2000030F00000307405F80000307505F90086
:1015020080307605FA007F307705FB007B087A048D
:1015120079047804031D8E2A8F2A972A0030F70057
:101522000030F6000030F5000030F400F31F9A2A74
:101532009B2ABF2A0030F8000030F9000030FA0080
:101542008030FB007008F8027108031C710FAA2A90
:10155200AB2AF9027208031C720FB02AB12AFA02EE
:101562007308031C730FB62AB72AFB027B08F30029
:101572007A08F2007908F1007808F000F71FC22A11
:10158200C32AE72A0030F8000030F9000030FA00E0
:101592008030FB007408F8027508031C750FD22A0C
:1015A200D32AF9027608031C760FD82AD92AFA021E
:1015B2007708031C770FDE2ADF2AFB027B08F7007D
:1015C2007A08F6007908F5007808F4008030F3060E
:1015D2008030F70677087302031DF92A7608720233
:1015E200031DF92A75087102031DF92A7408700295
:1015F2000318FC2AFD2AFF2A0310002B03140800FB
:1016020083120313A40024080319082B092B1D2B92
:10161200FD1F0C2B0D2B1D2B7A09A6007B09A700A1
:101622007C09A8007D09A900A60A0319A70A0319C3
:10163200A80A0319A90A252B7D08A9007C08A8007D
:101642007B08A7007A08A6007D087C047B047A0444
:10165200031D2C2B2D2B362B0030FD000030FC00FF
:101662000030FB000030FA00BA2B9630A500462B62
:101672000130FF007F08A50701300310A90CA80C58
:10168200A70CA60CFF3E031D3E2BFE302905031DB1
:101692004B2B4C2B392B682B0130FF007F08A50701
:1016A2000130A607003003180130A70700300318E5
:1016B2000130A807003003180130A90701300310D8
:1016C200A90CA80CA70CA60CFF3E031D602BFF3033
:1016D2002905031D6D2B6E2B4D2B7A2B0130A50294
:1016E2000130A0000310A60DA70DA80DA90DA00B97
:1016F200732BA81B7D2B7E2B842B02302502031813
:10170200832B842B6F2B2518872B882B902BFF3054
:10171200A605FF30A7057F30A805FF30A9050310F5
:10172200A50C2508A000A101A201A30118300310F5
:10173200A00DA10DA20DA30DFF3E031D982B2008A5
:10174200A6042108A7042208A8042308A90424083F
:101752000319AC2BAD2BB22BFD1FB02BB12BB22B2F
:10176200A9172908FD002808FC002708FB00260805
:10177200FA00080083120313A700A5012708031D1E
:10178200C32BC42BC52B872C27080A168A11C52503
:101792000A128A1583120313A6002708013E0A16AD
:1017A2008A11C5250A128A15FF007F0883120313C6
:1017B200A605A50125082707023E0A168A11C52596
:1017C2000A128A15FF007F0883120313A60501304F
:1017D200FF007F08A50704302502031CF12BF22B22
:1017E200DB2B343083120313A400F130A300A30BCC
:1017F200F82BA40BF82B383083120313A000270810
:101802000A168A11BA260A128A15FF007F08831265
:101812000313A6050D3083120313A400FB30A300AB
:10182200A30B112CA40B112C383083120313A0002C
:1018320027080A168A11BA260A128A15FF007F089B
:1018420083120313A605633083120313A300A30BB1
:10185200282C383083120313A00027080A168A1195
:10186200BA260A128A15FF007F0883120313A605FF
:10187200A001A00A27080A168A11BA260A128A1596
:10188200FF007F0883120313A6050230A000270879
:101892000A168A11BA260A128A15FF007F088312D5
:1018A2000313A6050630A00027080A168A11BA26D5
:1018B2000A128A15FF007F0883120313A6050C3053
:1018C200A00027080A168A11BA260A128A15FF00F2
:1018D2007F0883120313A6052830A00027080A16E2
:1018E2008A11BA260A128A15FF007F08831203138F
:1018F200A6058030A00027080A168A11BA260A1205
:101902008A15FF007F0883120313A60508008312BD
:1019120003134A08031D8E2C8F2C902C302ED801D5
:101922004908F3004808F2004708F1004608F000B1
:101932000030F7000030F6000030F5000030F4000F
:101942000A128A155F220A128A150318A92CAA2CD8
:10195200D42C831203134A0884002D308313800091
:101962000130FF007F08D807BF30AD008030AC00E7
:101972000030AB000030AA004908B1004808B000AE
:101982004708AF004608AE000A128A118C240A12D8
:101992008A15831203132D08C9002C08C8002B08CE
:1019A200C7002A08C600831203134908F300480837
:1019B200F2004708F1004608F0003F30F70080309F
:1019C200F6000030F5000030F4000A128A155F229A
:1019D2000A128A150318EE2CEF2CFE2C8312031325
:1019E20058084A07CB004B0884003030831380002C
:1019F2000130FF007F08D8075F2D831203134908C7
:101A0200F3004808F2004708F1004608F0000A1205
:101A12008A1570200A128A15700883120313D000E7
:101A22006430D600CF015A2D5608F00050080A162D
:101A32008A116B250A128A1583120313D7005608DE
:101A4200F00050080A168A11DA240A128A15831243
:101A52000313D000570803192F2D302D402DCF012D
:101A6200CF0A58084A07CB004B0884005708303E7B
:101A7200831380000130FF007F08D807462D4F08EE
:101A82000319442D452D462D322D0A30F000003029
:101A9200F1005608CB00CC014B08F2004C08F300D1
:101AA2000A128A1509200A128A1570088312031372
:101AB200D6005608031D5E2D5F2D152D58084A07C6
:101AC200CB004B0884002E30831380000130FF00CE
:101AD2007F08D8074908F3004808F2004708F100D8
:101AE2004608F0000A128A1570200A128A15700838
:101AF20083120313CB00CC01CD01CE014E08FD00B1
:101B02004D08FC004C08FB004B08FA0001300A1299
:101B12008A1501230A128A157D0883120313C10054
:101B22007C08C0007B08BF007A08BE004908C500D7
:101B32004808C4004708C3004608C2000A168A11B2
:101B420020250A128A15831203134108D500400882
:101B5200D4003F08D3003E08D200D1014130AD008D
:101B62002030AC000030AB000030AA005508B100B4
:101B72005408B0005308AF005208AE000A128A118E
:101B82008C240A128A15831203132D08D5002C08FF
:101B9200D4002B08D3002A08D2005508F3005408B9
:101BA200F2005308F1005208F0000A128A15702060
:101BB2000A128A15700883120313D7005708CB0044
:101BC200CC01CD01CE014E08FD004D08FC004C08B1
:101BD200FB004B08FA0001300A128A1501230A128F
:101BE2008A157D0883120313C1007C08C0007B089C
:101BF200BF007A08BE005508C5005408C400530847
:101C0200C3005208C2000A168A1120250A128A1538
:101C1200831203134108D5004008D4003F08D300C3
:101C22003E08D20058084A07CB004B0884005708E8
:101C3200303E831380000130FF007F08D807013057
:101C4200FF007F08D10705305102031C292E2A2EDE
:101C5200AF2D58084A07CB004B08840080010800CA
:101C62008312031331088039BB003108B2003207F6
:101C7200C200B01F3D2E3E2E3F2E421442080319D1
:101C8200432E442E542E420A031D482E492E512E15
:101C92000030B1000030B0000030AF000030AE00C4
:101CA200B017B1015C2E0030B1000030B00000303E
:101CB200AF000030AE002D088039FF007F08BB0660
:101CC2002D08B2003207C300AC1F682E692E6A2E9F
:101CD2004314430803196E2E6F2E7F2E430A031DF1
:101CE200732E742E7C2E0030AD000030AC0000301C
:101CF200AB000030AA00AC17AD01872E0030AD005A
:101D02000030AC000030AB000030AA002D082C04DB
:101D12002B042A04031D8E2E8F2EA82E0030B10014
:101D22000030B0000030AF000030AE008030B004B0
:101D32007F30B1043B08FF007F08B1043108AD00D9
:101D42003008AC002F08AB002E08AA00FF2F420873
:101D5200031DAC2EAD2EB62E0030AD000030AC000F
:101D62000030AB000030AA00FF2F4208B200B301DE
:101D72003308B50043083202B400031CB50334082B
:101D82007F3EBC0035080318013E003EBD0031080D
:101D9200BA003008B9002F08B8002E08B70000308A
:101DA200B1000030B0000030AF000030AE000030B3
:101DB200C1000030C0000030BF000030BE00C301CF
:101DC2002C2F43080319E62EE72E072F0130B2000D
:101DD2000310B70DB80DB90DBA0DB20BE92E0130D3
:101DE200B2000310AE0DAF0DB00DB10DB20BF22E5D
:101DF200C11FFC2EFD2EFE2E2E140130B200031048
:101E0200BE0DBF0DC00DC10DB20B002F2D083A0241
:101E1200031D152F2C083902031D152F2B0838021C
:101E2200031D152F2A083702031C182F192F282FDC
:101E320041172A08B7022B08031C2B0FB8022C08E3
:101E4200031C2C0FB9022D08031C2D0FBA020130FE
:101E5200FF007F08C3071A304302031C312F322FC1
:101E6200E22E3A083904380437040319392F3A2F7D
:101E7200592F3E14592F0130B2000310AE0DAF0D91
:101E8200B00DB10DB20B3E2FC11F482F492F4A2F63
:101E92002E140130B2000310BE0DBF0DC00DC10DD6
:101EA200B20B4C2FFF30BC070318BD0AFF30BD0731
:101EB200B01F5C2F5D2F3C2FC301C11F612F622F0A
:101EC2007E2FFF303E05B200FF303F05B300FF30EA
:101ED2004005B4007F304105B500350834043304B1
:101EE20032040319752F762F792FC301C30A7E2F6F
:101EF2002E1C7C2F7D2F7E2F762F43080319822FD5
:101F0200832FB42F0130AE07003003180130AF0722
:101F1200003003180130B007003003180130B10758
:101F2200311C942F952FB42F2E08B2002F08B30026
:101F32003008B4003108B5000130B600350DB50CDB
:101F4200B40CB30CB20CB60B9F2F3508B100340899
:101F5200B0003308AF003208AE000130BC070318EE
:101F6200BD0A0030BD073D08803AFF0080307F0285
:101F7200031DBD2FFF303C02031CC02FC12FCF2FEA
:101F8200FF3083120313BC000030BD000030B100EB
:101F92000030B0000030AF000030AE0083120313F7
:101FA2003D08803AFF0080307F02031DDA2F0130A6
:101FB2003C020318DD2FDE2FEB2F83120313BC012B
:101FC200BD010030B1000030B0000030AF00003081
:101FD200AE00BB01831203133C08C200421CF22F65
:101FE200F32FF52FB017F92F7F30FF007F08B005D0
:101FF2004208B2000310320CB1009B2E0800FF1BF6
:102002000A2883137F1883170008840A0319FF0A1A
:10201200080010308A000408840A82070034313430
:10202200323433342F343434353436342A3437347A
:10203200383439342D34233430343D342B3457344E
:1020420065346C3463346F346D3465340034453434
:0A205200523452344F34523400343B
:10294A0002340A3412341A3403340B347E088A00EF
:10295A007F0882000A168A11AB240A168A1180009F
:10296A00840A04087D0603190034FF0A0319FE0AC3
:10297A00AF2C0534003406340034073400340834EC
:10298A000034093400348534003486340034873402
:10299A000034883400348934003413341B3422342C
:1029AA002A3472347A3463346B34F3000830F40016
:1029BA00F5017308F10007300310F10CFF3E031D07
:1029CA00E12C7508F20072077104F5000310F30D8B
:1029DA0070087502031CF22CF32CF52C7008F50212
:1029EA000130F402031DFA2CFB2CDE2C75080800BA
:1029FA00FA007A08031D022D032D052DF9011E2D5B
:102A0A00F001F00A7A08013E0A128A15E6200A162F
:102A1A008A11F9000330F800F80B112DF0017A0839
:102A2A00013E0A128A15E6200A168A11FF007F085B
:102A3A00F90579080800803083120313C106450896
:102A4A00AD004408AC004308AB004208AA004108A4
:102A5A00B1004008B0003F08AF003E08AE000A12BD
:102A6A008A1134220A168A11831203132D08C1000F
:102A7A002C08C0002B08BF002A08BE000800F80076
:102A8A00F401F5017008F200F3017208F600730808
:102A9A00F700781C512D522D582D7608F40703188B
:102AAA00F50A7708F50701300310F60DF70DFF3E1A
:102ABA00031D592D0310F80C7808031D652D662D8A
:102ACA004E2D7508F1007408F0000800F100F301BA
:102ADA0070080319712D722D922DF201F20A7B2DC5
:102AEA000310F00D0130FF007F08F207F01F7E2D62
:102AFA007F2D752D0310F30D70087102031C862DAE
:102B0A00872D8A2D7008F10273140310F00C01301E
:102B1A00F202031D912D922D7F2D73080800831256
:102B2A000313A5002308A400250803199D2D9E2D33
:102B3A00A32D2308031DA22DA32DB82DC42D2408CF
:102B4A0084000A168A110A200A168A11A00025088A
:102B5A000A168A1157270A168A110130FF007F08C0
:102B6A0083120313A407240884000A168A110A2070
:102B7A000A168A11003A031DC32DC42DA42D08007C
:102B8A00FB007B080319CA2DCB2DDA2D7B088400A4
:102B9A008313000CF800F80C780C0739F900083098
:102BAA007902031CD92DDA2DDC2DFA01F72DFA0151
:102BBA00FA0A7B080A128A15DE210A168A11FF0010
:102BCA007F08FA057B08840000308313801B0130DC
:102BDA00F0007B080A128A15E6200A168A11FF00FD
:102BEA007F08FA057A08080083120313A800A701D0
:102BFA002808031D012E022E042EA701312E0130B2
:102C0A00A402212E2408803EA00028080A168A1150
:102C1A00BA260A168A1183120313A700312E240832
:102C2A00C03EA00028080A168A11BA260A168A1176
:102C3A0083120313A700312E2308A500A601260834
:102C4A00003A0319292E312E2508013A0319072EB5
:102C5A00033A0319142E312E27080800831203138E
:102C6A00A300A101A2012308031D3C2E3D2E3E2EE6
:102C7A006F2EA001A00AA101210823070A168A11B2
:102C8A00C5250A168A11FF007F0883120313A005BF
:102C9A000130FF007F08A10704302102031C562ED1
:102CAA00572E412EA20122082307043E0A128A1532
:102CBA00DE210A168A11FF007F0883120313A0057A
:102CCA000130FF007F08A20704302202031C6E2E87
:102CDA006F2E582E0800F70077080319752E762EE6
:102CEA008A2E700803197A2E7B2E8A2E7708840082
:102CFA008313000CF100F10C710C0739F200083053
:102D0A007202031C892E8A2E8C2EF601B82E7708A1
:102D1A00840000080739F1007107A03E840000080A
:102D2A00F200840A0008F300720884008317731CF7
:102D3A0083130008F400770884008313000CF5005D
:102D4A00F50C750C0739013EAC2E0310F40CFF3E4E
:102D5A00031DAA2E74080139FF00700884007F0839
:102D6A008000F601F60A7608080083120313A2000F
:102D7A002208031DC12EC22EC42EA101062FF00166
:102D8A0022080A128A15E6200A168A1183120313E8
:102D9A00A1002008FC0004300310FC0CFF3E031DB8
:102DAA00D12E7C08F80022080A168A1108270A166A
:102DBA008A11FF007F0883120313A10522080A164D
:102DCA008A11FD240A168A11FF007F088312031351
:102DDA00A1052008F80022080A168A1108270A16EF
:102DEA008A11FF007F0883120313A10522080A161D
:102DFA008A11FD240A168A11FF007F088312031321
:102E0A00A10521080800FB007B08031D0D2F0E2FCA
:102E1A00102FFA01552F78080139F0007B08023E7D
:102E2A000A128A15E6200A168A11FA007808F900A9
:102E3A000310790C0139F0007B08033E0A128A1547
:102E4A00E6200A168A11FF007F08FA057808F900B9
:102E5A0002300310F90CFF3E031D2E2F79080139A9
:102E6A00F0007B08043E0A128A15E6200A168A1127
:102E7A00FF007F08FA057808F90003300310F90CFF
:102E8A00FF3E031D432F79080139F0007B08053EF8
:102E9A000A128A15E6200A168A11FF007F08FA0527
:102EAA007A08080083120313A2002208031D5E2F6A
:102EBA005F2F612FA101A42FF001F00A22080A1244
:102ECA008A15E6200A168A1183120313A100200824
:102EDA00FC0004300310FC0CFF3E031D6F2F7C081E
:102EEA00F80022080A168A1108270A168A11FF0012
:102EFA007F0883120313A10522080A168A11FD24EA
:102F0A000A168A11FF007F0883120313A1052008FD
:102F1A00F80022080A168A1108270A168A11FF00E1
:102F2A007F0883120313A10522080A168A11FD24B9
:102F3A000A168A11FF007F0883120313A1052108CC
:102F4A00080083120313AD002D08031DAD2FAE2F09
:102F5A00AF2FFF2F2908A3002A08A4002D080A165C
:102F6A008A11F9250A168A1183120313AC00F0019B
:102F7A00F00A2D080A128A15E6200A168A11831207
:102F8A000313AC002B08FD0004300310FD0CFF3EB8
:102F9A00031DCA2F7D08F8002D080A168A11082772
:102FAA000A168A11FF007F0883120313AC052D0845
:102FBA000A168A11FD240A168A11FF007F08831255
:102FCA000313AC052B08F8002D080A168A110827E6
:102FDA000A168A11FF007F0883120313AC052D0815
:102FEA000A168A11FD240A168A11FF007F08831225
:062FFA000313AC05080002
:02400E003A3F37
:00000001FF
